{
  "transactions": [
    {
      "hash": "0x07a2f91d08cf7837e98ba73934ae45ecbcb429e3ce6e2fb4cc2fdfae5017e436",
      "transactionType": "CALL",
      "contractName": null,
      "contractAddress": "0x779877a7b0d9e8603169ddbd7836e478b4624789",
      "function": "transferAndCall(address,uint256,bytes)",
      "arguments": [
        "0x9DdfaCa8183c41ad55329BdeeD9F6A8d53168B1B",
        "3000000000000000000",
        "0x21723d33d0c57a7dda10f172f7f37687a20635bcb0a75fb5d19c476fa4baa12c"
      ],
      "transaction": {
        "from": "0xf2c5de6f31609cb9521b1e818e59ebce40f5fe48",
        "to": "0x779877a7b0d9e8603169ddbd7836e478b4624789",
        "gas": "0x1c1ff",
        "value": "0x0",
        "input": "0x4000aea00000000000000000000000009ddfaca8183c41ad55329bdeed9f6a8d53168b1b00000000000000000000000000000000000000000000000029a2241af62c00000000000000000000000000000000000000000000000000000000000000000060000000000000000000000000000000000000000000000000000000000000002021723d33d0c57a7dda10f172f7f37687a20635bcb0a75fb5d19c476fa4baa12c",
        "nonce": "0x1c",
        "chainId": "0xaa36a7"
      },
      "additionalContracts": [],
      "isFixedGasLimit": false
    }
  ],
  "receipts": [
    {
      "status": "0x1",
      "cumulativeGasUsed": "0xcd72d4",
      "logs": [
        {
          "address": "0x779877a7b0d9e8603169ddbd7836e478b4624789",
          "topics": [
            "0xddf252ad1be2c89b69c2b068fc378daa952ba7f163c4a11628f55a4df523b3ef",
            "0x000000000000000000000000f2c5de6f31609cb9521b1e818e59ebce40f5fe48",
            "0x0000000000000000000000009ddfaca8183c41ad55329bdeed9f6a8d53168b1b"
          ],
          "data": "0x00000000000000000000000000000000000000000000000029a2241af62c0000",
          "blockHash": "0x46b1e13ed93c531d329b3c9a0a1bc24dbda2ab498cc83580730d630e6145de9c",
          "blockNumber": "0x976a4c",
          "blockTimestamp": "0x694f7a30",
          "transactionHash": "0x07a2f91d08cf7837e98ba73934ae45ecbcb429e3ce6e2fb4cc2fdfae5017e436",
          "transactionIndex": "0x34",
          "logIndex": "0x1df",
          "removed": false
        },
        {
          "address": "0x779877a7b0d9e8603169ddbd7836e478b4624789",
          "topics": [
            "0xe19260aff97b920c7df27010903aeb9c8d2be5d310a2c67824cf3f15396e4c16",
            "0x000000000000000000000000f2c5de6f31609cb9521b1e818e59ebce40f5fe48",
            "0x0000000000000000000000009ddfaca8183c41ad55329bdeed9f6a8d53168b1b"
          ],
          "data": "0x00000000000000000000000000000000000000000000000029a2241af62c00000000000000000000000000000000000000000000000000000000000000000040000000000000000000000000000000000000000000000000000000000000002021723d33d0c57a7dda10f172f7f37687a20635bcb0a75fb5d19c476fa4baa12c",
          "blockHash": "0x46b1e13ed93c531d329b3c9a0a1bc24dbda2ab498cc83580730d630e6145de9c",
          "blockNumber": "0x976a4c",
          "blockTimestamp": "0x694f7a30",
          "transactionHash": "0x07a2f91d08cf7837e98ba73934ae45ecbcb429e3ce6e2fb4cc2fdfae5017e436",
          "transactionIndex": "0x34",
          "logIndex": "0x1e0",
          "removed": false
        },
        {
          "address": "0x9ddfaca8183c41ad55329bdeed9f6a8d53168b1b",
          "topics": [
            "0x1ced9348ff549fceab2ac57cd3a9de38edaaab274b725ee82c23e8fc8c4eec7a",
            "0x21723d33d0c57a7dda10f172f7f37687a20635bcb0a75fb5d19c476fa4baa12c"
          ],
          "data": "0x000000000000000000000000000000000000000000000000000000000000000000000000000000000000000000000000000000000000000029a2241af62c0000",
          "blockHash": "0x46b1e13ed93c531d329b3c9a0a1bc24dbda2ab498cc83580730d630e6145de9c",
          "blockNumber": "0x976a4c",
          "blockTimestamp": "0x694f7a30",
          "transactionHash": "0x07a2f91d08cf7837e98ba73934ae45ecbcb429e3ce6e2fb4cc2fdfae5017e436",
          "transactionIndex": "0x34",
          "logIndex": "0x1e1",
          "removed": false
        }
      ],
      "logsBloom": "0x00000004000000000000200000000000000000000020000000000000020000000000000000000000000000000000000000000000000000000000000000000000000000000000000000002008000000000000000000000000000020000020000008000000000000000000000000000000000200000000000000000010000040000000000000000000000000010000800000000020001000000000000000000000000000000000000000000000010000000000000080000000000004000000000000040002000000000000000000000000000000000000000100000000000000000010000000000000800000000000000000000000000000000000000000000000",
      "type": "0x2",
      "transactionHash": "0x07a2f91d08cf7837e98ba73934ae45ecbcb429e3ce6e2fb4cc2fdfae5017e436",
      "transactionIndex": "0x34",
      "blockHash": "0x46b1e13ed93c531d329b3c9a0a1bc24dbda2ab498cc83580730d630e6145de9c",
      "blockNumber": "0x976a4c",
      "gasUsed": "0x133b1",
      "effectiveGasPrice": "0x1461b0",
      "from": "0xf2c5de6f31609cb9521b1e818e59ebce40f5fe48",
      "to": "0x779877a7b0d9e8603169ddbd7836e478b4624789",
      "contractAddress": null
    }
  ],
  "libraries": [],
  "pending": [],
  "returns": {},
  "timestamp": 1766816305043,
  "chain": 11155111,
  "commit": "47aad98"
}