{
  "transactions": [
    {
      "hash": "0x2508dfa7a9847f73ae39b1a85d20e215758d5902a58dd8b1445986935e743e04",
      "transactionType": "CALL",
      "contractName": null,
      "contractAddress": "0x779877a7b0d9e8603169ddbd7836e478b4624789",
      "function": "transferAndCall(address,uint256,bytes)",
      "arguments": [
        "0x9DdfaCa8183c41ad55329BdeeD9F6A8d53168B1B",
        "5000000000000000000",
        "0x7f3c41687430cb5402100cd789c30558eb88f87034675ca92c7d478e332365f6"
      ],
      "transaction": {
        "from": "0xf2c5de6f31609cb9521b1e818e59ebce40f5fe48",
        "to": "0x779877a7b0d9e8603169ddbd7836e478b4624789",
        "gas": "0x1c1ff",
        "value": "0x0",
        "input": "0x4000aea00000000000000000000000009ddfaca8183c41ad55329bdeed9f6a8d53168b1b0000000000000000000000000000000000000000000000004563918244f40000000000000000000000000000000000000000000000000000000000000000006000000000000000000000000000000000000000000000000000000000000000207f3c41687430cb5402100cd789c30558eb88f87034675ca92c7d478e332365f6",
        "nonce": "0x1f",
        "chainId": "0xaa36a7"
      },
      "additionalContracts": [],
      "isFixedGasLimit": false
    }
  ],
  "receipts": [
    {
      "status": "0x1",
      "cumulativeGasUsed": "0x401ae2",
      "logs": [
        {
          "address": "0x779877a7b0d9e8603169ddbd7836e478b4624789",
          "topics": [
            "0xddf252ad1be2c89b69c2b068fc378daa952ba7f163c4a11628f55a4df523b3ef",
            "0x000000000000000000000000f2c5de6f31609cb9521b1e818e59ebce40f5fe48",
            "0x0000000000000000000000009ddfaca8183c41ad55329bdeed9f6a8d53168b1b"
          ],
          "data": "0x0000000000000000000000000000000000000000000000004563918244f40000",
          "blockHash": "0x91fc5649751f3de76eb157092b365efe1ab44774386fcceef598292aea1faa04",
          "blockNumber": "0x97e377",
          "blockTimestamp": "0x69558588",
          "transactionHash": "0x2508dfa7a9847f73ae39b1a85d20e215758d5902a58dd8b1445986935e743e04",
          "transactionIndex": "0x2a",
          "logIndex": "0x2b",
          "removed": false
        },
        {
          "address": "0x779877a7b0d9e8603169ddbd7836e478b4624789",
          "topics": [
            "0xe19260aff97b920c7df27010903aeb9c8d2be5d310a2c67824cf3f15396e4c16",
            "0x000000000000000000000000f2c5de6f31609cb9521b1e818e59ebce40f5fe48",
            "0x0000000000000000000000009ddfaca8183c41ad55329bdeed9f6a8d53168b1b"
          ],
          "data": "0x0000000000000000000000000000000000000000000000004563918244f40000000000000000000000000000000000000000000000000000000000000000004000000000000000000000000000000000000000000000000000000000000000207f3c41687430cb5402100cd789c30558eb88f87034675ca92c7d478e332365f6",
          "blockHash": "0x91fc5649751f3de76eb157092b365efe1ab44774386fcceef598292aea1faa04",
          "blockNumber": "0x97e377",
          "blockTimestamp": "0x69558588",
          "transactionHash": "0x2508dfa7a9847f73ae39b1a85d20e215758d5902a58dd8b1445986935e743e04",
          "transactionIndex": "0x2a",
          "logIndex": "0x2c",
          "removed": false
        },
        {
          "address": "0x9ddfaca8183c41ad55329bdeed9f6a8d53168b1b",
          "topics": [
            "0x1ced9348ff549fceab2ac57cd3a9de38edaaab274b725ee82c23e8fc8c4eec7a",
            "0x7f3c41687430cb5402100cd789c30558eb88f87034675ca92c7d478e332365f6"
          ],
          "data": "0x00000000000000000000000000000000000000000000000000000000000000000000000000000000000000000000000000000000000000004563918244f40000",
          "blockHash": "0x91fc5649751f3de76eb157092b365efe1ab44774386fcceef598292aea1faa04",
          "blockNumber": "0x97e377",
          "blockTimestamp": "0x69558588",
          "transactionHash": "0x2508dfa7a9847f73ae39b1a85d20e215758d5902a58dd8b1445986935e743e04",
          "transactionIndex": "0x2a",
          "logIndex": "0x2d",
          "removed": false
        }
      ],
      "logsBloom": "0x00000084000000000000000000000000000000000020000000000000020000000000000000000000000000000000000000000000000000000000000000000000000000000000000000002008000000000000000000400000000020000020000008000000000000000000000000000000000200000000000000000010000040000000000000000000000000010000800000000020000000000000000000000000000000000000000000000000010000000000000000000000000004000000000000040002000000000000000000000000000000000000000100000000000000000010000000000000800000000000000000000000000000000000000002000000",
      "type": "0x2",
      "transactionHash": "0x2508dfa7a9847f73ae39b1a85d20e215758d5902a58dd8b1445986935e743e04",
      "transactionIndex": "0x2a",
      "blockHash": "0x91fc5649751f3de76eb157092b365efe1ab44774386fcceef598292aea1faa04",
      "blockNumber": "0x97e377",
      "gasUsed": "0x133b1",
      "effectiveGasPrice": "0x101034",
      "from": "0xf2c5de6f31609cb9521b1e818e59ebce40f5fe48",
      "to": "0x779877a7b0d9e8603169ddbd7836e478b4624789",
      "contractAddress": null
    }
  ],
  "libraries": [],
  "pending": [],
  "returns": {},
  "timestamp": 1767212423838,
  "chain": 11155111,
  "commit": "fa806f8"
}